{
  "contractName": "FlightTicket",
  "abi": [
    {
      "constant": true,
      "inputs": [],
      "name": "_arrival",
      "outputs": [
        {
          "name": "",
          "type": "string"
        }
      ],
      "payable": false,
      "stateMutability": "view",
      "type": "function"
    },
    {
      "constant": true,
      "inputs": [],
      "name": "_price",
      "outputs": [
        {
          "name": "",
          "type": "uint256"
        }
      ],
      "payable": false,
      "stateMutability": "view",
      "type": "function"
    },
    {
      "constant": true,
      "inputs": [],
      "name": "_totalRefund",
      "outputs": [
        {
          "name": "",
          "type": "uint256"
        }
      ],
      "payable": false,
      "stateMutability": "view",
      "type": "function"
    },
    {
      "constant": true,
      "inputs": [],
      "name": "_percentRefund",
      "outputs": [
        {
          "name": "",
          "type": "uint256"
        }
      ],
      "payable": false,
      "stateMutability": "view",
      "type": "function"
    },
    {
      "constant": true,
      "inputs": [],
      "name": "_to",
      "outputs": [
        {
          "name": "",
          "type": "string"
        }
      ],
      "payable": false,
      "stateMutability": "view",
      "type": "function"
    },
    {
      "constant": true,
      "inputs": [],
      "name": "_flightNumber",
      "outputs": [
        {
          "name": "",
          "type": "string"
        }
      ],
      "payable": false,
      "stateMutability": "view",
      "type": "function"
    },
    {
      "constant": true,
      "inputs": [],
      "name": "_departure",
      "outputs": [
        {
          "name": "",
          "type": "string"
        }
      ],
      "payable": false,
      "stateMutability": "view",
      "type": "function"
    },
    {
      "constant": true,
      "inputs": [],
      "name": "_date",
      "outputs": [
        {
          "name": "",
          "type": "string"
        }
      ],
      "payable": false,
      "stateMutability": "view",
      "type": "function"
    },
    {
      "constant": true,
      "inputs": [],
      "name": "_delay",
      "outputs": [
        {
          "name": "",
          "type": "uint256"
        }
      ],
      "payable": false,
      "stateMutability": "view",
      "type": "function"
    },
    {
      "constant": true,
      "inputs": [],
      "name": "_from",
      "outputs": [
        {
          "name": "",
          "type": "string"
        }
      ],
      "payable": false,
      "stateMutability": "view",
      "type": "function"
    },
    {
      "inputs": [
        {
          "name": "flightNumber",
          "type": "string"
        },
        {
          "name": "departure",
          "type": "string"
        },
        {
          "name": "arrival",
          "type": "string"
        },
        {
          "name": "from_",
          "type": "string"
        },
        {
          "name": "to",
          "type": "string"
        },
        {
          "name": "date",
          "type": "string"
        },
        {
          "name": "price",
          "type": "uint256"
        }
      ],
      "payable": false,
      "stateMutability": "nonpayable",
      "type": "constructor"
    },
    {
      "anonymous": false,
      "inputs": [
        {
          "indexed": true,
          "name": "userAccount",
          "type": "string"
        },
        {
          "indexed": true,
          "name": "airlineAccount",
          "type": "string"
        },
        {
          "indexed": true,
          "name": "userRefund",
          "type": "uint256"
        }
      ],
      "name": "flightValidation",
      "type": "event"
    },
    {
      "constant": false,
      "inputs": [
        {
          "name": "delay",
          "type": "uint256"
        }
      ],
      "name": "validateFlight",
      "outputs": [],
      "payable": false,
      "stateMutability": "nonpayable",
      "type": "function"
    }
  ],
  "bytecode": "0x60806040523480156200001157600080fd5b5060405162000f5738038062000f5783398101806040528101908080518201929190602001805182019291906020018051820192919060200180518201929190602001805182019291906020018051820192919060200180519060200190929190505050336000806101000a81548173ffffffffffffffffffffffffffffffffffffffff021916908373ffffffffffffffffffffffffffffffffffffffff16021790555033600160006101000a81548173ffffffffffffffffffffffffffffffffffffffff021916908373ffffffffffffffffffffffffffffffffffffffff16021790555086600290805190602001906200010e92919062000303565b5085600390805190602001906200012792919062000303565b5084600490805190602001906200014092919062000303565b5083600590805190602001906200015992919062000303565b5082600690805190602001906200017292919062000303565b5081600790805190602001906200018b92919062000303565b50806008819055506040805190810160405280601081526020017f3439333732383437353834393338333900000000000000000000000000000000815250600b60405180807f757365724163636f756e74000000000000000000000000000000000000000000815250600b019050908152602001604051809103902090805190602001906200021c92919062000303565b506040805190810160405280601081526020017f3137323633343934383338333933303900000000000000000000000000000000815250600a60405180807f6169726c696e654163636f756e74000000000000000000000000000000000000815250600e01905090815260200160405180910390209080519060200190620002a692919062000303565b50600a60096000606481526020019081526020016000208190555060146009600060c881526020019081526020016000208190555060326009600061012c81526020019081526020016000208190555050505050505050620003b2565b828054600181600116156101000203166002900490600052602060002090601f016020900481019282601f106200034657805160ff191683800117855562000377565b8280016001018555821562000377579182015b828111156200037657825182559160200191906001019062000359565b5b5090506200038691906200038a565b5090565b620003af91905b80821115620003ab57600081600090555060010162000391565b5090565b90565b610b9580620003c26000396000f3006080604052600436106100af576000357c0100000000000000000000000000000000000000000000000000000000900463ffffffff1680631263d4f5146100b4578063235b6ea1146101445780633fba16351461016f5780634dad60691461019a578063689d14b9146101c55780638c2b61b6146102555780638f597528146102e557806393af175414610312578063afd4b0f6146103a2578063e836374314610432578063f2d717851461045d575b600080fd5b3480156100c057600080fd5b506100c96104ed565b6040518080602001828103825283818151815260200191508051906020019080838360005b838110156101095780820151818401526020810190506100ee565b50505050905090810190601f1680156101365780820380516001836020036101000a031916815260200191505b509250505060405180910390f35b34801561015057600080fd5b5061015961058b565b6040518082815260200191505060405180910390f35b34801561017b57600080fd5b50610184610591565b6040518082815260200191505060405180910390f35b3480156101a657600080fd5b506101af610597565b6040518082815260200191505060405180910390f35b3480156101d157600080fd5b506101da61059d565b6040518080602001828103825283818151815260200191508051906020019080838360005b8381101561021a5780820151818401526020810190506101ff565b50505050905090810190601f1680156102475780820380516001836020036101000a031916815260200191505b509250505060405180910390f35b34801561026157600080fd5b5061026a61063b565b6040518080602001828103825283818151815260200191508051906020019080838360005b838110156102aa57808201518184015260208101905061028f565b50505050905090810190601f1680156102d75780820380516001836020036101000a031916815260200191505b509250505060405180910390f35b3480156102f157600080fd5b50610310600480360381019080803590602001909291905050506106d9565b005b34801561031e57600080fd5b50610327610989565b6040518080602001828103825283818151815260200191508051906020019080838360005b8381101561036757808201518184015260208101905061034c565b50505050905090810190601f1680156103945780820380516001836020036101000a031916815260200191505b509250505060405180910390f35b3480156103ae57600080fd5b506103b7610a27565b6040518080602001828103825283818151815260200191508051906020019080838360005b838110156103f75780820151818401526020810190506103dc565b50505050905090810190601f1680156104245780820380516001836020036101000a031916815260200191505b509250505060405180910390f35b34801561043e57600080fd5b50610447610ac5565b6040518082815260200191505060405180910390f35b34801561046957600080fd5b50610472610acb565b6040518080602001828103825283818151815260200191508051906020019080838360005b838110156104b2578082015181840152602081019050610497565b50505050905090810190601f1680156104df5780820380516001836020036101000a031916815260200191505b509250505060405180910390f35b60048054600181600116156101000203166002900480601f0160208091040260200160405190810160405280929190818152602001828054600181600116156101000203166002900480156105835780601f1061055857610100808354040283529160200191610583565b820191906000526020600020905b81548152906001019060200180831161056657829003601f168201915b505050505081565b60085481565b600e5481565b600d5481565b60068054600181600116156101000203166002900480601f0160208091040260200160405190810160405280929190818152602001828054600181600116156101000203166002900480156106335780601f1061060857610100808354040283529160200191610633565b820191906000526020600020905b81548152906001019060200180831161061657829003601f168201915b505050505081565b60028054600181600116156101000203166002900480601f0160208091040260200160405190810160405280929190818152602001828054600181600116156101000203166002900480156106d15780601f106106a6576101008083540402835291602001916106d1565b820191906000526020600020905b8154815290600101906020018083116106b457829003601f168201915b505050505081565b600160009054906101000a900473ffffffffffffffffffffffffffffffffffffffff1673ffffffffffffffffffffffffffffffffffffffff163373ffffffffffffffffffffffffffffffffffffffff1614151561079e576040517f08c379a00000000000000000000000000000000000000000000000000000000081526004018080602001828103825260168152602001807f53656e646572206e6f7420617574686f72697a65642e0000000000000000000081525060200191505060405180910390fd5b6064811115156107b5576064600c819055506107d7565b60c8811115156107cc5760c8600c819055506107d6565b61012c600c819055505b5b60096000600c54815260200190815260200160002054600d819055506064600854600d540281151561080557fe5b04600e81905550600e54600a60405180807f6169726c696e6544657461696c73000000000000000000000000000000000000815250600e019050908152602001604051809103902060405180828054600181600116156101000203166002900480156108a85780601f106108865761010080835404028352918201916108a8565b820191906000526020600020905b815481529060010190602001808311610894575b50509150506040518091039020600b60405180807f757365724163636f756e74000000000000000000000000000000000000000000815250600b0190509081526020016040518091039020604051808280546001816001161561010002031660029004801561094e5780601f1061092c57610100808354040283529182019161094e565b820191906000526020600020905b81548152906001019060200180831161093a575b505091505060405180910390207e4f25fdde40122a711813f6731a57ce98e2bb644e4262eda50508c2cb01d9fe60405160405180910390a450565b60038054600181600116156101000203166002900480601f016020809104026020016040519081016040528092919081815260200182805460018160011615610100020316600290048015610a1f5780601f106109f457610100808354040283529160200191610a1f565b820191906000526020600020905b815481529060010190602001808311610a0257829003601f168201915b505050505081565b60078054600181600116156101000203166002900480601f016020809104026020016040519081016040528092919081815260200182805460018160011615610100020316600290048015610abd5780601f10610a9257610100808354040283529160200191610abd565b820191906000526020600020905b815481529060010190602001808311610aa057829003601f168201915b505050505081565b600c5481565b60058054600181600116156101000203166002900480601f016020809104026020016040519081016040528092919081815260200182805460018160011615610100020316600290048015610b615780601f10610b3657610100808354040283529160200191610b61565b820191906000526020600020905b815481529060010190602001808311610b4457829003601f168201915b5050505050815600a165627a7a72305820e1520d7e757d15573370ac40a3f7cd4bd95a410604af4aa9abc544edb46972590029",
  "source": "pragma solidity ^0.4.24;\r\n\r\ncontract FlightTicket {\r\n    \r\n    address owner;\r\n    address validator;\r\n    string public _flightNumber;\r\n    string public _departure;\r\n    string public _arrival;\r\n    string public _from;\r\n    string public _to;\r\n    string public _date;\r\n    uint public _price;\r\n    mapping (uint => uint) _refundPolicy;\r\n    mapping (string => string) _airlineDetails;\r\n    mapping (string => string) _userDetails;\r\n    \r\n    uint public _delay;\r\n    uint public _percentRefund;\r\n    uint public _totalRefund;\r\n\r\n    event flightValidation(string indexed userAccount, string indexed airlineAccount, uint indexed userRefund);\r\n    \r\n    constructor(string  flightNumber, string  departure, string  arrival, string  from_, string  to, string  date, uint  price) public {\r\n        owner = msg.sender;\r\n        validator = msg.sender;\r\n        _flightNumber = flightNumber;\r\n        _departure = departure;\r\n        _arrival = arrival;\r\n        _from = from_;\r\n        _to = to;\r\n        _date = date;\r\n        _price = price;\r\n        _userDetails[\"userAccount\"] = \"4937284758493839\";\r\n        _airlineDetails[\"airlineAccount\"] = \"1726349483839309\";\r\n        _refundPolicy[100] = 10; //100 minutes later = 10% refund\r\n        _refundPolicy[200] = 20;\r\n        _refundPolicy[300] = 50;\r\n    }\r\n    \r\n    function validateFlight(uint delay) public onlyValidator{\r\n        if (delay <= 100) {\r\n            _delay = 100;\r\n        }\r\n        else if (delay <= 200) {\r\n            _delay = 200;\r\n        }\r\n        else {\r\n            _delay = 300;\r\n        }\r\n        _percentRefund = _refundPolicy[_delay];\r\n        _totalRefund = (_percentRefund*_price)/100;\r\n        emit flightValidation(_userDetails[\"userAccount\"], _airlineDetails[\"airlineDetails\"], _totalRefund);\r\n    }\r\n\r\n\r\n    modifier onlyOwner {\r\n        require(msg.sender == owner, \"Sender not authorized.\");\r\n        _;\r\n    }\r\n\r\n    modifier onlyValidator {\r\n        require(msg.sender == validator, \"Sender not authorized.\");\r\n        _;\r\n    }\r\n}\r\n",
  "sourcePath": "C:\\Users\\Sergi\\fairflight\\fairflight-blockchain\\truffle\\contracts\\FlightTicket.sol",
  "compiler": {
    "name": "solc",
    "version": "0.4.24+commit.e67f0147.Emscripten.clang"
  },
  "schemaVersion": "2.0.1",
  "updatedAt": "2018-11-24T23:54:06.738Z"
}